:0400000056EF00F0C7
:08000800046ED8CF05F0E0CF33
:1000100006F00001E9CF0CF0EACF07F0E1CF08F0DD
:10002000E2CF09F0D9CF0AF0DACF0BF0F3CF12F01C
:10003000F4CF13F0FACF14F000C00EF001C00FF0AF
:1000400002C010F003C011F09DA22AEF00F09EB292
:100050004BEF00F00EC000F00FC001F010C002F036
:1000600011C003F00CC0E9FF07C0EAFF078E08C00B
:10007000E1FF09C0E2FF0AC0D9FF0BC0DAFF12C0DE
:10008000F3FF13C0F4FF14C0FAFF045006C0E0FFF2
:1000900005C0D8FF1000010E162616500A0803E10D
:1000A000929A897A166A9E922AEF00F0F86AD09E98
:1000B000078E166A176A186A196A1A6AC180C1829D
:1000C000C184C1969D82C00EF212480E0609CA6E06
:1000D000F90ECB6E93908A8093928A8293948A844D
:1000E00093968A8693988A88939A8A8A939C8A8C14
:1000F000939E8A8E94908B9094928B9294948B94EE
:1001000094968B9694988B98949A8B9A949C8B9CAB
:10011000949E8B9E92801A6A80B01A2A9282196AE3
:1001200080B2192A9284186A80B4182A9286176AB3
:1001300080B6172A175226E1185224E1195222E1FB
:100140001A5220E193908A8093928A8293948A84AF
:1001500093968A8693988A88939A8A8A939C8A8CA3
:10016000939E8A8E94908B9094928B9294948B947D
:1001700094968B9694988B98949A8B9A949C8B9C3B
:10018000949E8B9E175226E1185224E1195222E1C7
:100190001A2C20D093908A8093928A9293948A8486
:1001A00093968A8693988A88939A8A8A939C8A8C53
:1001B000939E8A8E94908B9094928B9294948B942D
:1001C00094968B9694988B98949A8B9A949C8B9CEB
:1001D000949E8B9E175226E1185224E1192C22D0AE
:1001E0001A5220E193908A8093928A8293948A94FF
:1001F00093968A8693988A88939A8A8A939C8A8C03
:10020000939E8A8E94908B9094928B9294948B94DC
:1002100094968B9694988B98949A8B9A949C8B9C9A
:10022000949E8B9E175226E1185224E1192C22D05D
:100230001A2C20D093908A8093928A8293948A84F5
:1002400093968A9693988A88939A8A8A939C8A8CA2
:10025000939E8A8E94908B9094928B9294948B948C
:1002600094968B9694988B98949A8B9A949C8B9C4A
:10027000949E8B9E175226E1182C24D0195222E10D
:100280001A5220E193908A8093928A8293948A846E
:1002900093968A8693988A98939A8A8A939C8A8C52
:1002A000939E8A8E94908B9094928B9294948B943C
:1002B00094968B9694988B98949A8B9A949C8B9CFA
:1002C000949E8B9E175226E1182C24D0195222E1BD
:1002D0001A2C20D093908A8093928A8293948A8455
:1002E00093968A8693988A88939A8A9A939C8A8C02
:1002F000939E8A8E94908B9094928B9294948B94EC
:1003000094968B9694988B98949A8B9A949C8B9CA9
:10031000949E8B9E175226E1182C24D0192C22D0A3
:100320001A5220E193908A8093928A8293948A84CD
:1003300093968A8693988A88939A8A8A939C8A9CB1
:10034000939E8A8E94908B9094928B9294948B949B
:1003500094968B9694988B98949A8B9A949C8B9C59
:10036000949E8B9E175226E1182C24D0192C22D053
:100370001A2C20D093908A8093928A8293948A84B4
:1003800093968A8693988A88939A8A8A939C8A8C71
:10039000939E8A9E94908B9094928B9294948B943B
:1003A00094968B9694988B98949A8B9A949C8B9C09
:1003B000949E8B9E172C26D0185224E1195222E1CC
:1003C0001A5220E193908A8093928A8293948A842D
:1003D00093968A8693988A88939A8A8A939C8A8C21
:1003E000939E8A8E94908B8094928B9294948B940B
:1003F00094968B9694988B98949A8B9A949C8B9CB9
:10040000949E8B9E172C26D0185224E1195222E17B
:100410001A2C20D093908A8093928A8293948A8413
:1004200093968A8693988A88939A8A8A939C8A8CD0
:10043000939E8A8E94908B9094928B8294948B94BA
:1004400094968B9694988B98949A8B9A949C8B9C68
:10045000949E8B9E172C26D0185224E1192C22D062
:100460001A5220E193908A8093928A8293948A848C
:1004700093968A8693988A88939A8A8A939C8A8C80
:10048000939E8A8E94908B9094928B9294948B846A
:1004900094968B9694988B98949A8B9A949C8B9C18
:1004A000949E8B9E172C26D0185224E1192C22D012
:1004B0001A2C20D093908A8093928A8293948A8473
:1004C00093968A8693988A88939A8A8A939C8A8C30
:1004D000939E8A8E94908B9094928B9294948B940A
:1004E00094968B8694988B98949A8B9A949C8B9CD8
:1004F000949E8B9E172C26D0182C24D0195222E1C2
:100500001A5220E193908A8093928A8293948A84EB
:1005100093968A8693988A88939A8A8A939C8A8CDF
:10052000939E8A8E94908B9094928B9294948B94B9
:1005300094968B9694988B88949A8B9A949C8B9C87
:10054000949E8B9E172C26D0182C24D0195222E171
:100550001A2C20D093908A8093928A8293948A84D2
:1005600093968A8693988A88939A8A8A939C8A8C8F
:10057000939E8A8E94908B9094928B9294948B9469
:1005800094968B9694988B98949A8B8A949C8B9C37
:10059000949E8B9E172C26D0182C24D0192C22D058
:1005A0001A5220E193908A8093928A8293948A844B
:1005B00093968A8693988A88939A8A8A939C8A8C3F
:1005C000939E8A8E94908B9094928B9294948B9419
:1005D00094968B9694988B98949A8B9A949C8B8CE7
:1005E000949E8B9E172C26D0182C24D0192C22D008
:1005F0001A2C20D093908A8093928A8293948A8432
:1006000093968A8693988A88939A8A8A939C8A8CEE
:10061000939E8A8E94908B9094928B9294948B94C8
:1006200094968B9694988B98949A8B9A949C8B9C86
:08063000949E8B8E6FD5030030
:020000040030CA
:0E00000000210C0E000181000FC00FE00F4028
:00000001FF
;PIC18F252
;CRC=CBF6  CREATED="01-abr-17 09:01"
