:0400000066EF00F0B7
:08000800046ED8CF05F0E0CF33
:1000100006F00001E9CF0CF0EACF07F0E1CF08F0DD
:10002000E2CF09F0D9CF0AF0DACF0BF0F3CF12F01C
:10003000F4CF13F0FACF14F000C00EF001C00FF0AF
:1000400002C010F003C011F09DA22AEF00F09EB292
:100050004BEF00F00EC000F00FC001F010C002F036
:1000600011C003F00CC0E9FF07C0EAFF078E08C00B
:10007000E1FF09C0E2FF0AC0D9FF0BC0DAFF12C0DE
:10008000F3FF13C0F4FF14C0FAFF045006C0E0FFF2
:1000900005C0D8FF1000010E162692801A6A80B0A3
:1000A0001A2A9282196A80B2192A9284186A80B434
:1000B000182A9286176A80B6172A16500A0803E192
:1000C000929A897A166A9E922AEF00F0F86AD09E78
:1000D000078E166A176A186A196A1A6AC180C1827D
:1000E000C184C1969D82C00EF212480E0609CA6EE6
:1000F000F90ECB6E93908A8093928A8293948A842D
:1001000093968A8693988A88939A8A8A939C8A8CF3
:10011000939E8A8E94908B9094928B9294948B94CD
:1001200094968B9694988B98949A8B9A949C8B9C8B
:10013000949E8B9E175209E1185207E1195205E16E
:100140001A5203E193908A9002D093908A801752BA
:1001500009E1185207E1195205E11A2C03D09392D4
:100160008A9202D093928A82175209E1185207E1CB
:10017000192C05D01A5203E193948A9402D09394D7
:100180008A84175209E1185207E1192C05D01A2C5C
:1001900003D093968A9602D093968A86175209E1E5
:1001A000182C07D0195205E11A5203E193988A9846
:1001B00002D093988A88175209E1182C07D0195257
:1001C00005E11A2C03D0939A8A9A02D0939A8A8ACC
:1001D000175209E1182C07D0192C05D01A5203E147
:1001E000939C8A9C02D0939C8A8C175209E1182C0C
:1001F00007D0192C05D01A2C03D0939E8A9E02D0CA
:10020000939E8A8E172C09D0185207E1195205E1E6
:100210001A5203E194908B8002D094908B90172C0B
:1002200009D0185207E1195205E11A2C03D0949213
:100230008B8202D094928B92172C09D0185207E12E
:10024000192C05D01A5203E194948B8402D0949413
:100250008B94172C09D0185207E1192C05D01A2CB1
:1002600003D094968B8602D094968B96172C09D047
:10027000182C07D0195205E11A5203E194988B8883
:1002800002D094988B98172C09D0182C07D01952AB
:1002900005E11A2C03D0949A8B8A02D0949A8B9AF7
:1002A000172C09D0182C07D0192C05D01A5203E1AD
:1002B000949C8B8C02D0949C8B9C172C09D0182C6E
:1002C00007D0192C05D01A2C03D0949E8B8E02D007
:0802D000949E8B9E2FD70300C2
:020000040030CA
:0E00000000210C0E000181000FC00FE00F4028
:00000001FF
;PIC18F252
;CRC=15D8  CREATED="01-abr-17 10:46"
